:10000000020074CAF86CFFA2B7E43378177E34009C
:100010000A120046A2B7E43368FA7E34000A1200DE
:10002000467EF0017CBFDAF822A9D7BA75EA0075DE
:10003000E90075B21075B18074807E34FE137E24A1
:10004000007E7A1BB0227D13800B0000007E181703
:100050006E1B1C78FC7D011B144D0078ED221200F4
:100060002912008A1200037CFBBEF00178F6B285EB
:10007000B2B480F07584017E44041FE47A49B01B59
:100080004478F97EF8000702005E759420759300AD
:0700900075B21075B10022EA
:00000001FF
