:1002D00050617373776F726C643A2000506173736E
:1002E000776F726C643A20202020202000506173C8
:1002F00073776F726C643A2020206F6B00506173CB
:0D03000073776F726C643A20206572720092
:10018C00E4F508F5091204747BFF7A0279D07D013D
:10019C007F011203EB1200038F08E50860F7D3947C
:1001AC000A50280509E50994045020AE24AF257C9B
:1001BC00007D0A1202698E248F25E50875F00A84E9
:1001CC00E5F02525F525E43524F524E508B40B14D4
:1001DC00E4F524F525F5097BFF7A0279DC7D017FB6
:1001EC00011203EBE508640C7035E525B4D21BE570
:1001FC0024B404167BFF7A0279ED7D017F01120392
:10020C00EBE4F524F525F5098015E4F524F5257BBB
:10021C00FF7A0279FD7D017F011203EBE4F509758C
:10022C000E04AB25AA247D017F0212042C0201A12D
:10045F00EF1FAC0670011E4C600A7D027CEFDCFEC4
:04046F00DDFC80EC44
:010473002266
:06048800C2A58F80D2A77F
:08048E007F027EEFDEFEDFFCC1
:010496002243
:0A04A300C2A6120488C2A702048E4C
:10040E00CFCDCFCECCCE12027B7C007D0A12027BEA
:04041E00ED2430FF9A
:0A042200D2A6120488C2A702048EBD
:10044900AE07BE0104ED148006BE0209ED243F4447
:0604590080FF1204A32243
:100474007F381204A37F0C1204A37F061204A37F07
:04048400010204A3CA
:0A04AD00AC03120449AF040204225C
:0603EB008B0A8A0B890C4D
:1003F100120449E4FDAB0AAA0BA90C8D8275830096
:0C04010012023CFF60061204220D80E98C
:01040D0022CC
:0C03B8007F0AEA24FFFDE434FFFC7E0015
:0803C4008E0F8F108C118D12B9
:1003CC007F017E00E4FBEBC39512E5116480F874A9
:0E03DC008098500AAC0FAD101202690B80E839
:0103EA0022F0
:04042C008A0C8B0D9E
:10043000120449AA0EEAD39400400D1203B8AC0C82
:08044000AD0D12040E1A80ED4F
:010448002291
:10030D00120449C3EA64809480400B7F2B120422AF
:10031D008A188B19800E7F2D120422C3E49BF519C8
:10032D00E49AF518AA17EAD39400400D1203B8AC5D
:09033D0018AD1912040E1A80ED2E
:010346002294
:040347008A1C8B1D64
:10034B00120449AA1EEAD3940040297F101203BA63
:10035B00AC1CAD1DCFCDCFCECCCE12027BEF540F4C
:10036B00FEC3940AEE5004243080022437FF12049B
:04037B00221A80D1F1
:01037F00225B
:040380008A218B2221
:10038400120449AA23EAD394004028EA24FFFDE496
:1003940034FFFC7F027E001203C4AC21AD22CFCD1A
:1003A400CFCECCCE12027BEF54012430FF120422B4
:0303B4001A80D2DA
:0103B7002223
:10000300E4F50A7590FFC2932094137F14FE120443
:100013005F3094FD7F147E0012045F750A0D2095F6
:10002300147F147E0012045F3095FD7F147E00124E
:10003300045F750A092096147F147E0012045F3052
:1000430096FD7F147E0012045F750A052097147FC6
:10005300147E0012045F3097FD7F147E0012045F4C
:10006300750A017590FFC2922094147F147E0012CA
:10007300045F3094FD7F147E0012045F750A0E2026
:1000830095147F147E0012045F3095FD7F147E006B
:1000930012045F750A0A2096147F147E0012045F0F
:1000A3003096FD7F147E0012045F750A06209714B4
:1000B3007F147E0012045F3097FD7F147E001204CC
:1000C3005F750A027590FFC2912094147F147E001D
:1000D30012045F3094FD7F147E0012045F750A0FD3
:1000E3002095147F147E0012045F3095FD7F147EEB
:1000F3000012045F750A0B2096147F147E0012040D
:100103005F3096FD7F147E0012045F750A07209707
:10011300147F147E0012045F3097FD7F147E00125B
:10012300045F750A037590FFC2902094147F147EB8
:100133000012045F3094FD7F147E0012045F750A81
:10014300102095147F147E0012045F3095FD7F14F8
:100153007E0012045F750A0C2096147F147E001231
:10016300045F3096FD7F147E0012045F750A082039
:1001730097147F147E0012045F3097FD7F147E0076
:0801830012045F750A04AF0AC3
:01018B002251
:0300000002049760
:0C049700787FE4F6D8FD75812502018C09
:10023C00BB010CE58229F582E5833AF583E0225077
:10024C0006E92582F8E622BBFE06E92582F8E222C1
:0D025C00E58229F582E5833AF583E49322DB
:10026900EF8DF0A4A8F0CF8CF0A428CE8DF0A42EA9
:02027900FE2263
:10027B00BC000BBE0029EF8DF084FFADF022E4CC67
:10028B00F875F008EF2FFFEE33FEEC33FCEE9DEC30
:10029B00984005FCEE9DFE0FD5F0E9E4CEFD22ED76
:1002AB00F8F5F0EE8420D21CFEADF075F008EF2FC0
:1002BB00FFED33FD4007985006D5F0F222C398FDB1
:0502CB000FD5F0EA224E
:00000001FF
