:0E07460048656C6C6F20576F726C64002E005B
:100462001207547FE87E031206FC1207117BFF7A03
:100472000779467D017F011206201207541205F406
:100482008F0B8E0A8D098C08E4FFFEFDFCAB0BAAD4
:100492000AA909A8081201A9501E7B2D7D017F021D
:1004A200120777AF0BAE0AAD09AC081202228F0B0E
:1004B2008E0A8D098C0880097B2B7D017F02120731
:1004C20077AF0BAE0AAD09AC08120271AB07AA06F0
:1004D2007510037D027F021206617BFF7A07795253
:1004E2007D057F021206207F007E407D1C7C46AB8C
:1004F2000BAA0AA909A808120003120271E47B10D0
:100502007A27F9F81203C27510047D067F021206DB
:040512006102047C02
:1006FC00EF1FAC0670011E4C600A7D027CEFDCFE25
:04070C00DDFC80ECA4
:0107100022C6
:06073700C2A58F80D2A7CD
:08073D007F027EEFDEFEDFFC0F
:010745002291
:0A076D00C2A6120737C2A702073D1B
:10064300CFCDCFCECCCE1203317C007D0A12033145
:04065300ED2430FF63
:0A065700D2A6120737C2A702073D22
:1006E600AE07BE0104ED148006BE0209ED243F44A8
:0606F60080FF12076D22D7
:100711007F3812076D7F0C12076D7F0612076D7F00
:040721000102076D5D
:0A077700AC031206E6AF04020657B9
:060620008B0C8A0D890E0F
:100626001206E6E4FDAB0CAA0DA90E8D82758300B9
:0C0636001202F2FF60061206570D80E968
:010642002295
:0C05C1007F0AEA24FFFDE434FFFC7E000A
:0805CD008E118F128C138D14A6
:1005D5007F017E00E4FBEBC39514E5136480F8749A
:0E05E5008098500AAC11AD1212031F0B80E873
:0105F30022E5
:040661008A0E8B0F63
:100665001206E6AA10EAD39400400D1205C1AC0E9D
:08067500AD0F1206431A80EDDF
:01067D00225A
:100516001206E6C3EA64809480400B7F2B120657CE
:100526008A1A8B1B800E7F2D120657C3E49BF51B80
:10053600E49AF51AAA19EAD39400400D1205C1AC43
:090546001AAD1B1206431A80EDE8
:01054F002289
:040550008A1E8B1F55
:100554001206E6AA20EAD3940040297F101205C3AC
:10056400AC1EAD1FCFCDCFCECCCE120331EF540F86
:10057400FEC3940AEE5004243080022437FF12068E
:04058400571A80D1B1
:010588002250
:040589008A238B2412
:10058D001206E6AA25EAD394004028EA24FFFDE4EA
:10059D0034FFFC7F027E001205CDAC23AD24CFCD00
:1005AD00CFCECCCE120331EF54012430FF120657BB
:0305BD001A80D2CF
:0105C0002218
:0D07540012069B7FCC1206B57F440206B54D
:1005F40012069B7FCC1206B57FBE1206B512067E8C
:100604008F0C12067EEFFEE50CFFFDAC06EC120229
:0B06140038E4FBFA7980784112010CF9
:01061F0022B8
:10069B00D2B7C2B77FF7DFFED2B77F20DFFEA2B79C
:0906AB00E433FE7FF7DFFEAF0629
:0106B4002223
:10072500C2B77E04DEFEEF24FF92B77E18DEFED24E
:01073500B70C
:0107360022A0
:1006CE00C2B77F02DFFED2B77F02DFFEA2B7E433EE
:0706DE00FE7F18DFFEAF06EE
:0106E50022F2
:0206B500AD078F
:1006B700E4FC7401A804088002C333D8FC5DFF1270
:0606C70007250CBC08EC45
:0106CD00220A
:10067E00E4FDFC1206CEEF600D7401A804088002A2
:0C068E00C333D8FC42050CBC08E9AF05E2
:01069A00223D
:10000300EC4D6011E8497017ED33EC3304600DE4F7
:10001300FCFFFEFD22E933E8330470F80202DD122F
:1000230002A858046009E4CC248150062850090230
:1000330002E72840030202E4C0E0EB4A7044B980BF
:1000430006D0E0FB0202D3EF4E701CBD8008EBFF2D
:10005300EAFEE9FD80EBE98DF0A4FEE5F00200EC99
:10006300E9CDF9EAFEEBFFEF89F0A4FCE5F0CE89D8
:10007300F0A42EFFE435F0CD89F0A42DFEE435F095
:100083008067EF4E7005BD80D780C3EF8BF0A4ACC3
:10009300F0EE8BF0A42CFCE435F0F8EF8AF0A42CFE
:1000A300E5F038FCE433CB8DF0A42CFCE5F03BF811
:1000B300EE8AF0A42CFCE5F038F8E433CF89F0A401
:1000C3002CFCE5F038CF3400CE89F0A42FFFE5F007
:1000D3003EFEE433C98DF0A42EFEE5F039CD8AF05F
:1000E300A42FFFE5F03EFEE43DFD33D0E0FB5007D7
:1000F3000BBB000F0202E7EC2CFCEF33FFEE33FEE9
:06010300ED33FD0202BF16
:100109000202E7EC5D046005E8590470030202DDB0
:100119001202A8580460F6EC4860F2EC7004FDFE87
:10012900FF22C860DB2481C85009C39860025006C9
:100139000202E49850CAF582E9294B4A7005AB825C
:100149000202D375F0007C1A7880C3EF9BEE9AED1A
:1001590099400DC3EF9BFFEE9AFEED99FDE842F041
:10016900DC23ACF0D0E0FFD0E0FED0E0FDAB822094
:10017900E7101BEB60BAEC2CFCEF33FFEE33FEED1E
:1001890033FD0202BFE803F830E705C0F075F0005F
:10019900EF2FFFEE33FEED33FD40B830E7C280AA02
:1001A90074F8CC6480CCC86480C8F58204604FC3FD
:1001B900EB9FF5F0EA9E42F0E99D42F0E89C45F09C
:1001C900603C501DE5825FFFE582D313CB5BCBF426
:1001D9002B5582FB50280ABA002409B9002008804F
:1001E9001DE5825BFBE582D313CF5FCFF4C3132FE9
:1001F9005582FF50090EBE00050DBD00010CC3EB71
:100209009FF5F0EA9E42F0E99D42F0E89C45F060D6
:0902190007CC4820E701B3EC22F8
:10022200ED33EC33600A047003BD8004ECB2E7FCEA
:0102320022A9
:1002330075F020800E75F010800575F0087D007E46
:10024300007F003392D530D503120454EC334010B1
:10025300EF33FFEE33FEED33FDEC33FCD5F0ED224F
:0E026300E5F0247EA2D513CC92E7CDCEFF228B
:10027100EDD2E7CD33EC3392D524814006E4FFFE85
:10028100FDFC22FCE4CFCECDCC24E0501174FF80E4
:10029100EDC3CC13CCCD13CDCE13CECF13CF047081
:0702A100F030D5DE02045429
:1002A800E9D2E7C933E833F892D5EDD2E7CD33EC9C
:0702B80033FC5002B2D52215
:1002BF00EC30E7100FBF000C0EBE00080DBD0004A0
:1002CF000BEB6014A2D5EB13FCED92E7FD2274FF4C
:1002DF00FCFDFEFF22E480F8A2D574FF13FC7D80A5
:0302EF00E480EFB9
:0300000002076193
:0C076100787FE4F6D8FD75812502046263
:1002F200BB010CE58229F582E5833AF583E02250C1
:1003020006E92582F8E622BBFE06E92582F8E2220A
:0D031200E58229F582E5833AF583E4932224
:10031F00EF8DF0A4A8F0CF8CF0A428CE8DF0A42EF2
:02032F00FE22AC
:10033100BC000BBE0029EF8DF084FFADF022E4CCB0
:10034100F875F008EF2FFFEE33FEEC33FCEE9DEC79
:10035100984005FCEE9DFE0FD5F0E9E4CEFD22EDBF
:10036100F8F5F0EE8420D21CFEADF075F008EF2F09
:10037100FFED33FD4007985006D5F0F222C398FDFA
:050381000FD5F0EA2297
:1003860075F008758200EF2FFFEE33FECD33CDCC2E
:1003960033CCC58233C5829BED9AEC99E5829840B1
:1003A6000CF582EE9BFEED9AFDEC99FC0FD5F0D68E
:1003B600E4CEFBE4CDFAE4CCF9A88222B800C1B9B8
:1003C6000059BA002DEC8BF084CFCECDFCE5F0CBF6
:1003D600F97818EF2FFFEE33FEED33FDEC33FCEB2F
:1003E60033FB10D703994004EB99FB0FD8E5E4F9EA
:1003F600FA227818EF2FFFEE33FEED33FDEC33FCD7
:10040600C933C910D7059BE99A4007EC9BFCE99ACA
:10041600F90FD8E0E4C9FAE4CCFB2275F010EF2F0F
:10042600FFEE33FEED33FDCC33CCC833C810D7070F
:100436009BEC9AE899400AED9BFDEC9AFCE899F84A
:0E0446000FD5F0DAE4CDFBE4CCFAE4C8F922DD
:0E045400C3E49FFFE49EFEE49DFDE49CFC22B9
:00000001FF
