:050003003A20203A0044
:1001EB00051AE51AC3943C4019051CE4F51AE51CE5
:1001FB00943C400E051BE4F51CE51B94184003E4EE
:03020B00F51B22BE
:100282005389F0438901758ACD758CD4C28DD28C85
:05029200D2AFD2A92249
:1000A2001202821202977BFF7A0079037D037F019D
:1000B20012020EE51BFB7A00750C027D017F011214
:1000C200024FE51CFB7A00750C027D047F011202CF
:1000D2004FE51AFB7A00750C027D077F0112024F71
:0200E20080D1CB
:03000B000201C22D
:0401C200C0E0C0D009
:1001C600758ACD758CD40519E51970020518D39476
:1001D60064E518940040097518007519001201EBC2
:0501E600D0D0D0E03292
:0602AB00C2A58F80D2A75E
:0802B1007F027EEFDEFEDFFCA0
:0102B9002222
:0A02C600C2A61202ABC2A70202B1E9
:10023100CFCDCFCECCCE12004D7C007D0A12004D29
:04024100ED2430FF79
:0A024500D2A61202ABC2A70202B15A
:10026C00AE07BE0104ED148006BE0209ED243F4426
:06027C0080FF1202C62201
:100297007F381202C67F0C1202C67F061202C67F83
:0402A700010202C688
:0A02D000AC0312026CAF04020245F9
:06020E008B088A09890A31
:1002140012026CE4FDAB08AA09A90A8D8275830059
:0C02240012000EFF60061202450D80E97A
:0102300022AB
:0C018F007F0AEA24FFFDE434FFFC7E0040
:08019B008E0D8F0E8C0F8D10EC
:1001A3007F017E00E4FBEBC39510E50F6480F874D8
:0E01B3008098500AAC0DAD0E12003B0B80E898
:0101C100221B
:04024F008A0A8B0B81
:1002530012026CAA0CEAD39400400D12018FAC0A6F
:08026300AD0B1202311A80ED0F
:01026B002270
:1000E40012026CC3EA64809480400B7F2B12024599
:1000F4008A168B17800E7F2D120245C3E49BF517D9
:10010400E49AF516AA15EAD39400400D12018FACB7
:0901140016AD171202311A80ED3C
:01011D0022BF
:04011E008A1F8B2089
:1001220012026CAA21EAD3940040297F1012019195
:10013200AC1FAD20CFCDCFCECCCE12004DEF540FA1
:10014200FEC3940AEE5004243080022437FF1202C8
:04015200451A80D1F9
:010156002286
:040157008A248B2546
:10015B0012026CAA26EAD394004028EA24FFFDE49D
:10016B0034FFFC7F027E0012019BAC24AD25CFCD6A
:10017B00CFCECCCE12004DEF54012430FF120245EE
:03018B001A80D205
:01018E00224E
:030000000202BA3F
:0C02BA00787FE4F6D8FD7581260200A2D2
:10000E00BB010CE58229F582E5833AF583E02250A7
:10001E0006E92582F8E622BBFE06E92582F8E222F1
:0D002E00E58229F582E5833AF583E493220B
:10003B00EF8DF0A4A8F0CF8CF0A428CE8DF0A42ED9
:02004B00FE2293
:10004D00BC000BBE0029EF8DF084FFADF022E4CC97
:10005D00F875F008EF2FFFEE33FEEC33FCEE9DEC60
:10006D00984005FCEE9DFE0FD5F0E9E4CEFD22EDA6
:10007D00F8F5F0EE8420D21CFEADF075F008EF2FF0
:10008D00FFED33FD4007985006D5F0F222C398FDE1
:05009D000FD5F0EA227E
:00000001FF
