:10099A00543A0054483A00544C3A002E004F563A02
:0C09AA0048004F563A4C0020202020004E
:10046D00E4F508F509120A05E4FFFE12082F8F08BE
:10047D007F017E0012082F8F09D3E508648094FD5B
:10048D005015C3E50964809449400CE5096480F872
:10049D00E5086480985006750819750912120A73DB
:1004AD007BFF7A09799A7D017F011209017BFF7A21
:1004BD0009799D7D017F021209017BFF7A0979A1DE
:1004CD007D097F02120901E508FB3395E0FA750FEE
:1004DD00037D047F021206E8E509FB3395E0FA750A
:1004ED000F037D0C7F021206E8120AE18F0A120A31
:1004FD009612085F8F1B8E1A8D198C18E4FFFEFD66
:10050D00FCAB1BAA1AA919A8181201B4501E7B2DF9
:10051D007D037F01120AC5AF1BAE1AAD19AC1812BF
:10052D00022D8F1F8E1E8D1D8C1C8015851B1F850A
:10053D001A1E85191D85181C7B2B7D037F01120A40
:10054D00C5AF1FAE1EAD1DAC1C12027CAB07AA06BB
:10055D00750F037D047F011209607BFF7A0979A570
:10056D007D077F011209017F007E407D1C7C46AB1B
:10057D001FAA1EA91DA81C12000E12027CE47B10DE
:10058D007A27F9F81203CD750F027D087F01120944
:10059D0060E50A7003020640B4010E0508D3E508B4
:1005AD00648094FD400375087DE50AB402111508B9
:1005BD00D3E5096480F8E50864809850020508E5E4
:1005CD000AB403110509C3E5086480F8E5096480E0
:1005DD009840021509E50AB4040E1509C3E509642E
:1005ED0080944950037509C9E508FB3395E0FA7508
:1005FD000F037D047F021206E8E509FB3395E0FA4F
:10060D00750F037D0C7F021206E87F057E00120A2E
:10061D005EE508FD3395E0FCE4FFFE1208DD7F0585
:10062D007E00120A5EE509FD3395E0FC7F017E0038
:10063D001208DDAC08EC120248AB1BAA1AA919A8C6
:10064D00181201B4600A40087BFF7A0979A7801956
:10065D00AC09EC120248AB1BAA1AA919A818120171
:10066D00B450107BFF7A0979AC7D0D7F0112090121
:10067D000204F67BFF7A0979B17D0D7F0112090124
:03068D000204F66E
:03000B000206905A
:10069000C0E0C0F0C083C082C0D075D000C000C030
:0D06A00001C002C003C004C005C006C007B1
:1006AD00758A18758CFC0517E51770020516C3942D
:1006BD0014E5169400400975160075170012075BB6
:1006CD00D007D006D005D004D003D002D001D00081
:0B06DD00D0D0D082D083D0F0D0E0322B
:0D0A96001209D27FCC1209EC7F440209EC5A
:10085F001209D27FCC1209EC7FBE1209EC12097D6E
:10086F008F0B12097DEFFEE50BFFFDAC06EC1202BC
:0B087F0043E4FBFA7980784112011776
:01088A00224B
:060A8700C2A58F80D2A77A
:080A8D007F027EEFDEFEDFFCBC
:010A9500223E
:0A0ABB00C2A6120A87C2A7020A8D24
:10092400CFCDCFCECCCE12033C7C007D0A12033C4B
:04093400ED2430FF7F
:0A093800D2A6120A87C2A7020A8D98
:100A1C00AE07BE0104ED148006BE0209ED243F446E
:060A2C0080FF120ABB224C
:100A73007F38120ABB7F0C120ABB7F06120ABB7FA8
:040A830001020ABBA7
:0A0AC500AC03120A1CAF040209384A
:060901008B0B8A0C890D2E
:10090700120A1CE4FDAB0BAA0CA90D8D827583009E
:0C0917001202FDFF60061209380D80E995
:0109230022B1
:0C07CC007F0AEA24FFFDE434FFFC7E00FD
:0807D8008E128F138C148D1595
:1007E0007F017E00E4FBEBC39515E5146480F8748B
:0E07F0008098500AAC12AD1312032A0B80E859
:0107FE0022D8
:040960008A0D8B0E63
:10096400120A1CAA0FEAD39400400D1207CCAC0D56
:08097400AD0E1209241A80EDFA
:01097C002258
:1006E800120A1CC3EA64809480400B7F2B120938DD
:1006F8008A108B11800E7F2D120938C3E49BF511E7
:10070800E49AF510AA0FEAD39400400D1207CCAC76
:0907180010AD111209241A80ED44
:0107210022B5
:040722008A238B2477
:10072600120A1CAA25EAD3940040297F101207CE8C
:10073600AC23AD24CFCDCFCECCCE12033CEF540F9D
:10074600FEC3940AEE5004243080022437FF1209B7
:04075600381A80D1FC
:01075A00227C
:040794008A288B29FB
:10079800120A1CAA2AEAD394004028EA24FFFDE49E
:1007A80034FFFC7F027E001207D8AC28AD29CFCDDC
:1007B800CFCECCCE12033CEF54012430FF120938BF
:0307C8001A80D2C2
:0107CB00220B
:1009D200D2B7C2B77FF7DFFED2B77F20DFFEA2B762
:0909E200E433FE7FF7DFFEAF06EF
:0109EB0022E9
:100A3200C2AFC2B77E04DEFEEF24FF92B77E18DE9D
:050A4200FED2B7D2AFA7
:010A4700228C
:1009B600C2AFC2B77F02DFFED2B77F02DFFEA2B7A9
:0B09C600E433FE7F18DFFED2AFAF0667
:0109D1002203
:0209EC00AD0755
:1009EE00E4FC7401A804088002C333D8FC5DFF1236
:0609FE000A320CBC08ECFB
:010A040022CF
:10097D00E4FDFC1209B6EF600D7401A804088002B5
:0C098D00C333D8FC42050CBC08E9AF05E0
:01099900223B
:0207FF00AD0744
:10080100E4FBC2B77F04DFFE74017E00A807088005
:1008110005C333CE33CED8F9FFEDF582EF558224EF
:0D082100FF92B77F18DFFED2B70BBB08D5E2
:01082E0022A7
:1008B600E4FEC2B77D02DDFED2B77D02DDFE30B7B3
:1008C6000D7401A806088002C333D8FC42077D18C0
:0608D600DDFE0EBE08DC91
:0108DC0022F9
:1008DD008F0B8C0C8D0D120ACF7FA012088B120A74
:1008ED00A3AF0B12088B120AA3AF0D12088B120ABD
:0408FD00A30200034F
:02082F008F0B2D
:10083100120ACF7FA012088B120AA3AF0B12088BEA
:10084100120AA3120ACF7FA112088B120AA312095E
:0D085100428F0CD200120AD8120003AF0C27
:01085E002277
:100A5E00EF1FAC0670011E4C600A7D027CEFDCFEBF
:040A6E00DDFC80EC3F
:010A72002261
:090ACF00D2A0D2A1C2A0C2A12252
:07000300C2A0D2A1D2A0228D
:02088B00AD07B7
:10088D00E4FB74807E00A803088006CEA2E713CE99
:10089D0013D8F8FFEDF582EF558224FF92A0D2A177
:0808AD00C2A10BBB08DCC2A0D4
:0108B5002220
:10094200E4FFD2A0FED2A130A00D7480A8060880D8
:0D09520002C313D8FC4207C2A10EBE08E884
:01095F002275
:090AD800A20092A0D2A1C2A12249
:0B0AA300D2A0D2A1A2A0E433FFC2A1A8
:010AAE002225
:050AE100E4AF2DF52D2E
:010AE60022ED
:100A4800E4FF20B1010F20B0027F0220B2027F0331
:050A580020B3027F0441
:010A5D002276
:10075B00852B2C120A488F2BE52CB40107E52B7047
:10076B0003752D01E52CB40207E52B7003752D02E3
:10077B00E52CB40307E52B7003752D03E52CB404AE
:08078B0007E52B7003752D0436
:010793002243
:100A05005389F0438901758A18758CFCC28DD28C87
:070A1500D2A9D2AFC2B92241
:10000E00EC4D6011E8497017ED33EC3304600DE4EC
:10001E00FCFFFEFD22E933E8330470F80202E81219
:10002E0002B358046009E4CC24815006285009021A
:10003E0002F22840030202EFC0E0EB4A7044B9809E
:10004E0006D0E0FB0202DEEF4E701CBD8008EBFF17
:10005E00EAFEE9FD80EBE98DF0A4FEE5F00200F783
:10006E00E9CDF9EAFEEBFFEF89F0A4FCE5F0CE89CD
:10007E00F0A42EFFE435F0CD89F0A42DFEE435F08A
:10008E008067EF4E7005BD80D780C3EF8BF0A4ACB8
:10009E00F0EE8BF0A42CFCE435F0F8EF8AF0A42CF3
:1000AE00E5F038FCE433CB8DF0A42CFCE5F03BF806
:1000BE00EE8AF0A42CFCE5F038F8E433CF89F0A4F6
:1000CE002CFCE5F038CF3400CE89F0A42FFFE5F0FC
:1000DE003EFEE433C98DF0A42EFEE5F039CD8AF054
:1000EE00A42FFFE5F03EFEE43DFD33D0E0FB5007CC
:1000FE000BBB000F0202F2EC2CFCEF33FFEE33FED3
:06010E00ED33FD0202CA00
:100114000202F2EC5D046005E8590470030202E88F
:100124001202B3580460F6EC4860F2EC7004FDFE71
:10013400FF22C860DB2481C85009C39860025006BE
:100144000202EF9850CAF582E9294B4A7005AB8246
:100154000202DE75F0007C1A7880C3EF9BEE9AED04
:1001640099400DC3EF9BFFEE9AFEED99FDE842F036
:10017400DC23ACF0D0E0FFD0E0FED0E0FDAB822089
:10018400E7101BEB60BAEC2CFCEF33FFEE33FEED13
:1001940033FD0202CAE803F830E705C0F075F00049
:1001A400EF2FFFEE33FEED33FD40B830E7C280AAF7
:1001B40074F8CC6480CCC86480C8F58204604FC3F2
:1001C400EB9FF5F0EA9E42F0E99D42F0E89C45F091
:1001D400603C501DE5825FFFE582D313CB5BCBF41B
:1001E4002B5582FB50280ABA002409B90020088044
:1001F4001DE5825BFBE582D313CF5FCFF4C3132FDE
:100204005582FF50090EBE00050DBD00010CC3EB65
:100214009FF5F0EA9E42F0E99D42F0E89C45F060CB
:0902240007CC4820E701B3EC22ED
:10022D00ED33EC33600A047003BD8004ECB2E7FCDF
:01023D00229E
:10023E0075F020800E75F010800575F0087D007E3B
:10024E00007F003392D530D50312045FEC3340109B
:10025E00EF33FFEE33FEED33FDEC33FCD5F0ED2244
:0E026E00E5F0247EA2D513CC92E7CDCEFF2280
:10027C00EDD2E7CD33EC3392D524814006E4FFFE7A
:10028C00FDFC22FCE4CFCECDCC24E0501174FF80D9
:10029C00EDC3CC13CCCD13CDCE13CECF13CF047076
:0702AC00F030D5DE02045F13
:1002B300E9D2E7C933E833F892D5EDD2E7CD33EC91
:0702C30033FC5002B2D5220A
:1002CA00EC30E7100FBF000C0EBE00080DBD000495
:1002DA000BEB6014A2D5EB13FCED92E7FD2274FF41
:1002EA00FCFDFEFF22E480F8A2D574FF13FC7D809A
:0302FA00E480EFAE
:03000000020AAF42
:0C0AAF00787FE4F6D8FD75812D02046DFF
:1002FD00BB010CE58229F582E5833AF583E02250B6
:10030D0006E92582F8E622BBFE06E92582F8E222FF
:0D031D00E58229F582E5833AF583E4932219
:10032A00EF8DF0A4A8F0CF8CF0A428CE8DF0A42EE7
:02033A00FE22A1
:10033C00BC000BBE0029EF8DF084FFADF022E4CCA5
:10034C00F875F008EF2FFFEE33FEEC33FCEE9DEC6E
:10035C00984005FCEE9DFE0FD5F0E9E4CEFD22EDB4
:10036C00F8F5F0EE8420D21CFEADF075F008EF2FFE
:10037C00FFED33FD4007985006D5F0F222C398FDEF
:05038C000FD5F0EA228C
:1003910075F008758200EF2FFFEE33FECD33CDCC23
:1003A10033CCC58233C5829BED9AEC99E5829840A6
:1003B1000CF582EE9BFEED9AFDEC99FC0FD5F0D683
:1003C100E4CEFBE4CDFAE4CCF9A88222B800C1B9AD
:1003D1000059BA002DEC8BF084CFCECDFCE5F0CBEB
:1003E100F97818EF2FFFEE33FEED33FDEC33FCEB24
:1003F10033FB10D703994004EB99FB0FD8E5E4F9DF
:10040100FA227818EF2FFFEE33FEED33FDEC33FCCB
:10041100C933C910D7059BE99A4007EC9BFCE99ABF
:10042100F90FD8E0E4C9FAE4CCFB2275F010EF2F04
:10043100FFEE33FEED33FDCC33CCC833C810D70704
:100441009BEC9AE899400AED9BFDEC9AFCE899F83F
:0E0451000FD5F0DAE4CDFBE4CCFAE4C8F922D2
:0E045F00C3E49FFFE49EFEE49DFDE49CFC22AE
:00000001FF
