:02005A00AD07F0
:10005C00E4FB74807E00A803088006CEA2E713CED2
:10006C0013D8F8FFEDF582EF558224FF92B4D2B687
:0A007C00C2B60BBB08DCD2B5C2B55A
:010086002257
:10008700AA07AF0512005AAF027480A807088002BA
:10009700C313D8FCF4F5807F017E001200A9758098
:0200A700FF2236
:10000300C2B6C2B57DAA7C007F071200877D3C7C07
:1000130000E4FF1200877D427C007F011200877D90
:10002300A97C007F021200877D857C007F0312007C
:10003300877D857C007F041200877DA97C007F0576
:100043001200877D427C007F061200877D3C7C0086
:070053007F0712008780B651
:1000A900EF1FAC0670011E4C600A7D027CEFDCFE7E
:0400B900DDFC80ECFE
:0100BD002220
:030000000200BE3D
:0C00BE00787FE4F6D8FD7581070200038E
:00000001FF
