:1003B60057656C636F6D6520746F204368696E6165
:0503C6002100616263EB
:10018D0078087C007D007BFF7A0379C87E007F03B1
:10019D001200D31203E07B417D017F011204087B25
:1001AD00007A0079087D017F0212031C750F057B13
:1001BD00177A007D027F011202E8750F027BFB7A30
:1001CD00FF7D097F0112020C750F027BAA7A007D5B
:1001DD000D7F01120267750F067B867A007D057F04
:1001ED00021202B07BFF7A0379B67D107F011203F4
:0F01FD001C7F1812042D7FE87E031203CB80F2C3
:06041B00C2A58F80D2A7EC
:080421007F027EEFDEFEDFFC2E
:0104290022B0
:03042A004480FF0C
:0A042D00C2A612041BC2A70204219C
:10034B00C3E50F9510FF1203F4AD07AC06AF03AE78
:0F035B00021201387C007D0A120138ED2430FFB8
:0A036A00D2A612041BC2A702042150
:1003E0007F3812042D7F0C12042D7F0612042D7FFE
:0403F0000102042DD5
:0D043700EDBF0103148002243F12042A22AD
:10040800AC03EDBF0103148002243F12042AAF0499
:0304180002036A72
:06031C008B0B8A0C890D19
:10032200EDBF0103148002243F4480FF12042DE438
:10033200FDAB0BAA0CA90D8D827583001200F9FF8B
:08034200600612036A0D80E958
:01034A002290
:0203F400A90757
:1003F6007F017E0019E960097C007D0A12012680D2
:01040600F302
:0104070022D2
:0402E8008A0D8B0EE2
:1002EC00EDBF0103148002243F4480FF12042DE46F
:1002FC00FBEBC3950F5018C3E50F9BFF1203F4AC37
:0F030C000DAD0ECFCDCFCECCCE12035C0B80E269
:01031B0022BF
:10020C00120437C3EA6480948040237F2B12036A64
:10021C00E4F510AF0FEF3395E0FEC3E5109FEE64ED
:10022C0080F8748098503312034B051080E57F2DB5
:10023C0012036AC3E49BFFE49AAB07FAE4F510AF30
:10024C000FEF3395E0FEC3E5109FEE6480F87480E9
:0A025C0098500712034B051080E5CF
:010266002275
:02039B00AD07AC
:10039D007F017E001DED6010EFC4F8540FC868FF9B
:0803AD00EEC454F048FE80ECA0
:0103B5002225
:040267008A0D8B0E63
:10026B00E4FB120437AF0FEF3395E0FEEBC39FEEC9
:10027B006480F8748098502CC3E50F9BFF12039B8E
:10028B00AC0DAD0ECFCDCFCECCCE120138EF540F7F
:10029B00FEC3940AEE5004243080022437FF12036D
:0402AB006A0B80C199
:0102AF00222C
:080374008E108F118C128D1305
:10037C007F017E00E4FBEBC39513E5126480F874F7
:0E038C008098500AAC10AD111201260B80E8CB
:01039A002240
:0402B0008A0D8B0E1A
:1002B400120437AA0FEAD394004028EA24FFFDE48D
:1002C40034FFFC7F027E00120374AC0DAD0ECFCD63
:1002D400CFCECCCE120138EF54012430FF12036A82
:0302E4001A80D2AB
:0102E70022F4
:1003CB00EF1FAC0670011E4C600A7D027CEFDCFE59
:0403DB00DDFC80ECD9
:0103DF0022FB
:03000000020444B3
:0C044400787FE4F6D8FD75811302018D6D
:10000300E709F608DFFA8046E709F208DFFA803EDF
:1000130088828C83E709F0A3DFFA8032E309F608CC
:10002300DFFA8078E309F208DFFA807088828C8334
:10003300E309F0A3DFFA806489828A83E0A3F608E8
:10004300DFFA805889828A83E0A3F208DFFA804CC2
:1000530080D280FA80C680D4806980F28033801099
:1000630080A680EA809A80A880DA80E280CA803302
:1000730089828A83ECFAE493A3C8C582C8CCC5837A
:10008300CCF0A3C8C582C8CCC583CCDFE9DEE7804A
:100093000D89828A83E493A3F608DFF9ECFAA9F0C9
:1000A300EDFB2289828A83ECFAE0A3C8C582C8CC1F
:1000B300C583CCF0A3C8C582C8CCC583CCDFEADE38
:1000C300E880DB89828A83E493A3F208DFF980CC9A
:1000D30088F0EF60010E4E60C388F0ED2402B40493
:1000E3000050B9F582EB2402B4040050AF2323453A
:0600F3008223900053730C
:1000F900BB010CE58229F582E5833AF583E02250BC
:1001090006E92582F8E622BBFE06E92582F8E22205
:0D011900E58229F582E5833AF583E493221F
:10012600EF8DF0A4A8F0CF8CF0A428CE8DF0A42EED
:02013600FE22A7
:10013800BC000BBE0029EF8DF084FFADF022E4CCAB
:10014800F875F008EF2FFFEE33FEEC33FCEE9DEC74
:10015800984005FCEE9DFE0FD5F0E9E4CEFD22EDBA
:10016800F8F5F0EE8420D21CFEADF075F008EF2F04
:10017800FFED33FD4007985006D5F0F222C398FDF5
:050188000FD5F0EA2292
:00000001FF
