:100090001F214181018107971F21419109891797EC
:0800A0001F21458D0D8D1797FE
:10000300E4F50A1200C9E4F508E508250990009013
:1000130093FD7C00AF0812006E0508E508C3940841
:1000230040E7050AE50AD3940140DBE4F50A7408C6
:0E0033002509F509C3941840CDE4F50980C8ED
:1000A800EF1FAC0670011E4C600A7D027CEFDCFE7F
:0400B800DDFC80ECFF
:0100BC002221
:02004100AD0709
:10004300E4FB74807E00A803088006CEA2E713CEEB
:1000530013D8F8FFEDF582EF558224FF92B4D2B6A0
:0A006300C2B60BBB08DCD2B5C2B573
:01006D002270
:10006E00AA07AF05120041AF027480A807088002EC
:10007E00C313D8FCF4F5807F017E001200A87580B2
:02008E00FF224F
:0500C900C2B6C2B52221
:030000000200BD3E
:0C00BD00787FE4F6D8FD75810A0200038C
:00000001FF
