:0D03850068656C6C6F0020203A20203A0063
:10000E001203621203207BFF7A0379857D017F0242
:10001E001202C27BFF7A03798B7D017F011202C22D
:10002E0012013C8F16E516B401020517E517B4014F
:10003E000EE516B402020515E516B403021515E514
:10004E0017B4020EE516B402020514E516B4030247
:10005E001514E517C394034003E4F517E515FB7A71
:10006E0000750C027D017F01120303E514FB7A007B
:10007E00750C027D047F01120303E513FB7A0075F4
:10008E000C027D077F01120303E517FB7A00750C46
:0A009E00027D077F02120303808633
:03000B0002019D52
:04019D00C0E0C0D02E
:1001A100758CFC758A170512E51270020511D3943E
:1001B100E8E511940340277511007512000513E558
:1001C10013943C40190514751300E514943C400E3A
:0E01D1000515751400E515941840037515000A
:0501DF00D0D0D0E03299
:10034D00EF1FAC0670011E4C600A7D027CEFDCFED7
:04035D00DDFC80EC57
:010361002279
:10013C00E4F50820B1137F14FE12034D30B1FD7F9E
:10014C00147E0012034D75080120B0147F147E003C
:10015C0012034D30B0FD7F147E0012034D75080262
:10016C0020B2147F147E0012034D30B2FD7F147E3A
:10017C000012034D75080320B3147F147E00120384
:10018C004D30B3FD7F147E0012034D750804AF088B
:01019C002240
:100320005389F0438901C28DD28C758CFC758A1774
:07033000D2A9D2AFC2B9222D
:06037600C2A58F80D2A792
:08037C007F027EEFDEFEDFFCD4
:010384002256
:0A039E00C2A6120376C2A702037C78
:1002E500CFCDCFCECCCE1200E77C007D0A1200E741
:0402F500ED2430FFC5
:0A02F900D2A6120376C2A702037C0E
:10033700AE07BE0104ED148006BE0209ED243F445A
:0603470080FF12039E225C
:100362007F3812039E7F0C12039E7F0612039E7F2C
:040372000102039EE3
:0A03A800AC03120337AF040202F9A0
:0602C2008B088A09890A7D
:1002C800120337E4FDAB08AA09A90A8D82758300D9
:0C02D8001200A8FF60061202F90D80E978
:0102E40022F7
:0C028F007F0AEA24FFFDE434FFFC7E003F
:08029B008E0D8F0E8C0F8D10EB
:1002A3007F017E00E4FBEBC39510E50F6480F874D7
:0E02B3008098500AAC0DAD0E1200D50B80E8FD
:0102C100221A
:040303008A0A8B0BCC
:10030700120337AA0CEAD39400400D12028FAC0AED
:08031700AD0B1202E51A80EDA6
:01031F0022BB
:1001E400120337C3EA64809480400B7F2B1202F918
:1001F4008A1D8B1E800E7F2D1202F9C3E49BF51E0F
:10020400E49AF51DAA1CEAD39400400D12028FACA7
:090214001DAD1E1202E51A80ED79
:01021D0022BE
:04021E008A218B2284
:10022200120337AA23EAD3940040297F10120291C5
:10023200AC21AD22CFCDCFCECCCE1200E7EF540F02
:10024200FEC3940AEE5004243080022437FF1202C7
:04025200F91A80D144
:010256002285
:040257008A268B2741
:10025B00120337AA28EAD394004028EA24FFFDE4CE
:10026B0034FFFC7F027E0012029BAC26AD27CFCD64
:10027B00CFCECCCE1200E7EF54012430FF1202F99F
:03028B001A80D204
:01028E00224D
:0300000002039266
:0C039200787FE4F6D8FD75812802000E8B
:1000A800BB010CE58229F582E5833AF583E022500D
:1000B80006E92582F8E622BBFE06E92582F8E22257
:0D00C800E58229F582E5833AF583E4932271
:1000D500EF8DF0A4A8F0CF8CF0A428CE8DF0A42E3F
:0200E500FE22F9
:1000E700BC000BBE0029EF8DF084FFADF022E4CCFD
:1000F700F875F008EF2FFFEE33FEEC33FCEE9DECC6
:10010700984005FCEE9DFE0FD5F0E9E4CEFD22ED0B
:10011700F8F5F0EE8420D21CFEADF075F008EF2F55
:10012700FFED33FD4007985006D5F0F222C398FD46
:050137000FD5F0EA22E3
:00000001FF
