:10030500E52A60220529E529C394644019E4F52905
:100315000527E527943C400EE4F5270528E52894B4
:070325003C4003E4F528222F
:10000E001203A312040C8F2BE52BB4010CE52A70FE
:10001E00047F0180027F008F2AE52BB40207E4F5EE
:10002E0029F528F527E52B64037039E528FD7C00BA
:10003E007F017E0012032C7F037E001203D0E52782
:10004E00FD7C007F027E0012032C7F037E001203D4
:10005E00D0E529FD7C007F037E0012032C7F037EFA
:10006E00001203D0E52BB4041B7F037E001202AAFC
:10007E008F297F017E001202AA8F287F027E001236
:10008E0002AA8F27E52875F00A84FD7C007F0112F5
:10009E0003F1E52875F00A84E5F0FD7C007F02127D
:1000AE0003F17D0B7C007F031203F1E52775F00A47
:1000BE0084FD7C007F041203F1E52775F00A84E5C8
:1000CE00F0FD7C007F051203F17D0B7C007F061294
:1000DE0003F1E52975F00A84FD7C007F071203F118
:1000EE00E52975F00A84E5F0FD7C007F081203F126
:0300FE00020011EC
:03000B0002018D62
:10018D00C0E0C0F0C083C082C0D075D000C000C038
:0D019D0001C002C003C004C005C006C007B9
:1001AA00758A18758CFC0522E52270020521052442
:1001BA00E524700205230526E52670020525C3E518
:1001CA0022940FE52194004009752100752200123E
:1001DA00027112036EC3E526940AE52594004009CC
:0901EA00120305752500752600BD
:1001F300D007D006D005D004D003D002D001D00060
:0B020300D0D0D082D083D0F0D0E03209
:1003D000EF1FAC0670011E4C600A7D027CEFDCFE54
:0403E000DDFC80ECD4
:0103E40022F6
:100389000C123F065B4F666D7D077F6F00400909C0
:09039900000A0A0A0A0A0A0A0A0B
:0903F100AE0574092FF8A60622DE
:10020E00EF14B40800505490022375F003A4C58374
:10021E0025F0C5837302023B02023F020243020233
:10022E004702024B02025302025B020263D2A48017
:10023E000ED2A48012D2A48016D2A4801AC2A4D246
:10024E00A3D2A28016C2A4D2A3C2A2800EC2A4C2FE
:10025E00A3D2A28006C2A4C2A3C2A274122DF8E633
:03026E00F58022F6
:10036E0074092508F8E6FD7C00AF0812020E050898
:0A037E00E508D39409400375080157
:010388002252
:05040C00E4AF32F532FF
:0104110022C8
:1003BA00E4FF20B1010F20B0027F0220B2027F03C6
:0503CA0020B3027F04D6
:0103CF00220B
:100271008530311203BA8F30E531B40107E53070B2
:1002810003753201E531B40207E5307003753202BE
:10029100E531B40307E5307003753203E531B40489
:0802A10007E53070037532041B
:0102A9002232
:1003A3005389F0438901758A18758CFCC28DD28CF0
:0703B300D2A9D2AFC2B922AA
:10032C008F2D8C2E8D2F1203FA7FA01202DA12035E
:10033C00E5AF2D1202DA1203E5AF2F1202DA120327
:04034C00E5020003C3
:0202AA008F2D96
:1002AC001203FA7FA01202DA1203E5AF2D1202DA62
:1002BC001203E51203FA7FA11202DA1203E512030C
:0D02CC00508F2ED200120403120003AF2E3B
:0102D9002202
:0903FA00D2A0D2A1C2A0C2A1222E
:07000300C2A0D2A1D2A0228D
:0202DA00AD076E
:1002DC00E4FB74807E00A803088006CEA2E713CE50
:1002EC0013D8F8FFEDF582EF558224FF92A0D2A12E
:0802FC00C2A10BBB08DCC2A08B
:0103040022D6
:10035000E4FFD2A0FED2A130A00D7480A8060880D0
:0D03600002C313D8FC4207C2A10EBE08E87C
:01036D00226D
:09040300A20092A0D2A1C2A12224
:0B03E500D2A0D2A1A2A0E433FFC2A16D
:0103F00022EA
:03000000020101F9
:0C010100787FE4F6D8FD758132020148D9
:10010D0002000EE493A3F8E493A34003F68001F2FA
:10011D0008DFF48029E493A3F85407240CC8C333F3
:10012D00C4540F4420C8834004F456800146F6DFC2
:10013D00E4800B0102040810204080900389E47EC6
:10014D00019360BCA3FF543F30E509541FFEE493B7
:10015D00A360010ECF54C025E060A840B8E493A37E
:10016D00FAE493A3F8E493A3C8C582C8CAC583CAA9
:10017D00F0A3C8C582C8CAC583CADFE9DEE780BE61
:0103A200005A
:00000001FF
