:10000000020118CA7BCA6BCA5BCA4BCA2BCA1BCA7D
:100010000BC0D1C0D0C083C0827E35090B347A3585
:10002000097E3400647E25098D237A2509E5081AA6
:100030003BBE3509400CE5086008120154120184EA
:10004000800612014312017FD082D083D0D0D0D15C
:10005000DA0BDA1BDA2BDA4BDA5BDA6BDA7B32CAD1
:10006000F86CFFA2B7E43378177E34000A1201005F
:10007000A2B7E43368FA7E34000A1201007EF00170
:100080007CBFDAF822A9D7BA75EA0075E90053B245
:100090007F43B18074807E34FE137E24007E7A1B01
:0200A000B0228C
:1000A3000200036CFF12017212012E12008512016D
:1000B3006512005F7CEBBEE00178F64CFF781FE52C
:1000C300082414F508BEB06408E74CFF78067401F1
:1000D3007CFB80026CFFE50824ECF50880D3E5087F
:1000E30024ECF508BEB00058C84CFF780674017CB8
:1000F300FB80026CFFE5082414F50880B47D1380AF
:100103000B0000007E18176E1B1C78FC7D011B146E
:100113004D0078ED227584017E44041FE47A49B0D2
:100123001B4478F97EF8000A0200A653DDBF43DDC5
:100133002075D3E875D2FF43AF4043DD80D2AF22B1
:10014300C2A0C2A1C2A2C2A3C294C295C297C296C0
:1001530022D2A0C2A1C2A2D2A3D294C295D297C2E4
:10016300962275960F7595007592F075910022434E
:10017300B21053B1EF4394205393DF22C2B4C2852C
:0601830022D2B4D2852255
:00000001FF
