:10000300E4F508F50920B1167F0AFE12007430B139
:10001300FD7F0A7E0012007475080075090120B087
:10002300177F0A7E0012007430B0FD7F0A7E001233
:10003300007475080075090220B2177F0A7E00124A
:10004300007430B2FD7F0A7E0012007475080075DB
:10005300090320B3177F0A7E0012007430B3FD7FBB
:100063000A7E00120074750800750904AE08AF0912
:01007300226A
:0D008900120003EF64014E70F7B2A080F387
:10007400EF1FAC0670011E4C600A7D027CEFDCFEB3
:04008400DDFC80EC33
:010088002255
:0300000002009665
:0C009600787FE4F6D8FD7581090200892E
:00000001FF
