:10000300E4F509F50A20B1167F14FE1200C130B1E0
:10001300FD7F147E001200C1750900750A0120B02E
:10002300177F147E001200C130B0FD7F147E0012D2
:1000330000C1750900750A0220B2177F147E0012F1
:1000430000C130B2FD7F147E001200C17509007536
:100053000A0320B3177F147E001200C130B3FD7F63
:10006300147E001200C1750900750A04AE09AF0AB7
:01007300226A
:10007400E4F50875A0FE120003BF011E0508C3E5E0
:1000840008648094884003E4F508AE087401A80667
:10009400088002C333D8FCF4F5A0BF02D91508C305
:1000A400E508648094805003750807AF087401A8BC
:0D00B40007088002C333D8FCF4F5A080B922
:1000C100EF1FAC0670011E4C600A7D027CEFDCFE66
:0400D100DDFC80ECE6
:0100D5002208
:030000000200D625
:0C00D600787FE4F6D8FD75810A02007402
:00000001FF
