:10000E00120114E4FFFEE4F50BF50CE50C64094552
:10001E000B7002050A050CE50C7002050B640A450F
:10002E000B70E80FBF00010EEF64644E70D8E4FE53
:10003E00FFC3EF9464EE6480948050C7E4F50BF533
:10004E000CE50C6409450B7002150A050CE50C70E5
:10005E0002050B640A450B70E80FBF00010E80D13C
:03000B000200C32D
:1000C300C0E0C0F0C0D075D000C000C004C005C0FF
:0300D30006C0075D
:1000D600758CFF758AF50509E50970020508AE08F5
:1000E600FF7C007D6412006E8C088D09C3E50995BE
:0D00F6000AE50894004004C2A18002D2A1D6
:10010300D007D006D005D004D000D0D0D0F0D0E0B6
:0101130032B9
:100114005389F0438901C28DD28C758CFC758A1782
:07012400D2A9D2AFC2B9223B
:10012B00EF1FAC0670011E4C600A7D027CEFDCFEFB
:04013B00DDFC80EC7B
:01013F00229D
:03000000020140BA
:0C014000787FE4F6D8FD75810C02000EFB
:10006E00BC000BBE0029EF8DF084FFADF022E4CC76
:10007E00F875F008EF2FFFEE33FEEC33FCEE9DEC3F
:10008E00984005FCEE9DFE0FD5F0E9E4CEFD22ED85
:10009E00F8F5F0EE8420D21CFEADF075F008EF2FCF
:1000AE00FFED33FD4007985006D5F0F222C398FDC0
:0500BE000FD5F0EA225D
:00000001FF
