:0C02730048656C6C6F20576F726C640063
:10009700120225120250E4FFFE1202967F0112029D
:1000A700BE7F017E0012023B1202B58E228F237B98
:1000B700FF7A0279737D017F011201B1750C04ABE0
:0C00C70023AA227D017F021201F280F0CA
:10023B00EF1FAC0670011E4C600A7D027CEFDCFEEA
:04024B00DDFC80EC6A
:01024F00228C
:06026400C2A58F80D2A7A5
:08026A007F027EEFDEFEDFFCE7
:010272002269
:0A02A100C2A6120264C2A702026A9C
:1001D400CFCDCFCECCCE1200427C007D0A1200429D
:0401E400ED2430FFD7
:0A01E800D2A6120264C2A702026A46
:10020F00AE07BE0104ED148006BE0209ED243F4483
:06021F0080FF1202A12283
:100250007F381202A17F0C1202A17F061202A17F39
:04026000010202A1F4
:0A02AB00AC0312020FAF040201E8D9
:0601B1008B088A09890A8F
:1001B70012020FE4FDAB08AA09A90A8D8275830014
:0C01C700120003FF60061201E80D80E941
:0101D3002209
:0C017E007F0AEA24FFFDE434FFFC7E0051
:08018A008E0D8F0E8C0F8D10FD
:100192007F017E00E4FBEBC39510E50F6480F874E9
:0E01A2008098500AAC0DAD0E1200300B80E8B4
:0101B000222C
:0401F2008A0A8B0BDF
:1001F60012020FAA0CEAD39400400D12017EAC0A3B
:08020600AD0B1201D41A80EDCA
:01020E0022CD
:1000D30012020FC3EA64809480400B7F2B1201E865
:1000E3008A168B17800E7F2D1201E8C3E49BF51748
:1000F300E49AF516AA15EAD39400400D12017EACDA
:0901030016AD171201D41A80EDAB
:01010C0022D0
:04010D008A1A8B1BA4
:1001110012020FAA1CEAD3940040297F1012018019
:10012100AC1AAD1BCFCDCFCECCCE120042EF540FC7
:10013100FEC3940AEE5004243080022437FF1201DA
:04014100E81A80D167
:010145002297
:040146008A1F8B2061
:10014A0012020FAA21EAD394004028EA24FFFDE410
:10015A0034FFFC7F027E0012018AAC1FAD20CFCD96
:10016A00CFCECCCE120042EF54012430FF1201E868
:03017A001A80D216
:01017D00225F
:0B028B00D288C289D2AFD2A8D2B8221C
:100225005389F0438901C28DD28CE4F58CF58AD2CD
:06023500A9D2AFC2B922FC
:0B029600AD07AC068C8CAF058F8A22F0
:0902B500AF8CEFFEAD8AEDFF22D3
:0602BE00EF24FF928C22E8
:0300000002027F7A
:0C027F00787FE4F6D8FD7581230200971B
:10000300BB010CE58229F582E5833AF583E02250B2
:1000130006E92582F8E622BBFE06E92582F8E222FC
:0D002300E58229F582E5833AF583E4932216
:10003000EF8DF0A4A8F0CF8CF0A428CE8DF0A42EE4
:02004000FE229E
:10004200BC000BBE0029EF8DF084FFADF022E4CCA2
:10005200F875F008EF2FFFEE33FEEC33FCEE9DEC6B
:10006200984005FCEE9DFE0FD5F0E9E4CEFD22EDB1
:10007200F8F5F0EE8420D21CFEADF075F008EF2FFB
:10008200FFED33FD4007985006D5F0F222C398FDEC
:050092000FD5F0EA2289
:00000001FF
