:1008AF002020002D20202D2020003A20203A20202B
:0108BF000038
:1005940012041AE518FB7A00750C027D017F011222
:1005A400083CE519FB7A00750C027D047F011208F2
:1005B4003CE51AFB7A00750C027D077F0112083CAA
:1005C400E51BFB7A00750C027D017F0212083CE5F5
:1005D4001CFB7A00750C027D047F0212083CE51DA9
:0D05E400FB7A00750C027D077F0202083CC7
:10000E00E525B4020B0523E52375F0068485F02360
:10001E00E525640360030200DD74182523F806E568
:10002E0018D394634003751801E519D3940C40035B
:10003E00751901E51964016023E5196403601DE576
:10004E001964056017E51964066011E51964086006
:10005E000BE519640A6005E519B40C0AE51AD39488
:10006E001F4003751A01E51964046011E519640750
:10007E00600BE51964096005E519B40B0AE51AD39E
:10008E00941E4003751A01E519B40210E5185403C5
:10009E00700AE51AD3941D4003751A01E519B402CE
:1000AE0010E5185403600AE51AD3941C4003751A20
:1000BE0001E51BC394184003E4F51BE51CC3943CF7
:1000CE004003E4F51CE51DC3943C4003E4F51DE537
:1000DE0025640460030201BA74182523F816E51886
:1000EE00C394015003751863E519C3940150037549
:1000FE00190CE51964016023E5196403601DE51907
:10010E0064056017E51964076011E5196408600B52
:10011E00E519640A6005E519B40C0AE51AC39401E1
:10012E005003751A1FE51964046011E51964066021
:10013E000BE51964096005E519B40B14E51AC394AF
:10014E00015003751A1EE51AD3941E4003751A0149
:10015E00E519B4021AE51854037014E51AC3940194
:10016E005003751A1DE51AD3941D4003751A01E547
:10017E0019B4021AE51854036014E51AC394015019
:10018E0003751A1CE51AD3941C4003751A01E51B5E
:10019E00D394184003751B17E51CD3943C4003758C
:1001AE001C3BE51DD3943C4003751D3B200013E51D
:1001BE0023700F7BFF7A0879AF7D017F011207FB59
:1001CE00800FE518FB7A00750C027D017F01120885
:1001DE003C200014E523B4010F7BFF7A0879AF7D34
:1001EE00047F011207FB800FE519FB7A00750C02E4
:1001FE007D047F0112083C200014E523B4020F7B1E
:10020E00FF7A0879AF7D077F011207FB800FE51A91
:10021E00FB7A00750C027D077F0112083C2000144A
:10022E00E523B4030F7BFF7A0879AF7D017F0212BD
:10023E0007FB800FE51BFB7A00750C027D017F0228
:10024E0012083C200014E523B4040F7BFF7A0879D2
:10025E00AF7D047F021207FB800FE51CFB7A007551
:10026E000C027D047F0212083C200012E523B40527
:10027E000D7BFF7A0879AF7D077F020207FBE51D34
:0E028E00FB7A00750C027D077F0212083C22ED
:10064E0012085912089B12000312029C7BFF7A08B3
:10065E0079B27D037F011207FB7BFF7A0879B97DA2
:10066E00037F021207FB1205338F25E525B4011611
:10067E00E524B40108E4F52412029C8009E52470F7
:10068E0005752401F523E524B4010512000E80D66C
:09069E00E52470D212059480CD10
:03000B000207D316
:0407D300C0E0C0D0F2
:1007D700758CFC758A170522E52270020521D394D2
:0F07E70090E52194014008752100752200B200B1
:0507F600D0D0D0E0327C
:10088600EF1FAC0670011E4C600A7D027CEFDCFE99
:04089600DDFC80EC19
:01089A00223B
:0608C000C2A58F80D2A743
:0808C6007F027EEFDEFEDFFC85
:0108CE002207
:0A08CF00C2A61208C0C2A70208C6A4
:10081E00CFCDCFCECCCE1203C57C007D0A1203C540
:04082E00ED2430FF86
:0A083200D2A61208C0C2A70208C631
:10087000AE07BE0104ED148006BE0209ED243F441C
:0608800080FF1208CF22E8
:10089B007F381208CF7F0C1208CF7F061208CF7F4C
:0408AB00010208CF6F
:0A08D900AC03120870AF04020832ED
:0607FB008B088A09890A3F
:10080100120870E4FDAB08AA09A90A8D827583005C
:0C081100120386FF60061208320D80E919
:01081D0022B8
:0C07A0007F0AEA24FFFDE434FFFC7E0029
:0807AC008E0D8F0E8C0F8D10D5
:1007B4007F017E00E4FBEBC39510E50F6480F874C1
:0E07C4008098500AAC0DAD0E1203B30B80E806
:0107D2002204
:04083C008A0A8B0B8E
:10084000120870AA0CEAD39400400D1207A0AC0A5B
:08085000AD0B12081E1A80ED29
:01085800227D
:1006F500120870C3EA64809480400B7F2B12083285
:100705008A168B17800E7F2D120832C3E49BF517CE
:10071500E49AF516AA15EAD39400400D1207A0AC89
:0907250016AD1712081E1A80ED32
:01072E0022A8
:04072F008A288B2960
:10073300120870AA2AEAD3940040297F101207A254
:10074300AC28AD29CFCDCFCECCCE1203C5EF540FFD
:10075300FEC3940AEE5004243080022437FF1208AB
:04076300321A80D1F5
:01076700226F
:040768008A2D8B2E1D
:10076C00120870AA2FEAD394004028EA24FFFDE473
:10077C0034FFFC7F027E001207ACAC2DAD2ECFCD2A
:10078C00CFCECCCE1203C5EF54012430FF12083269
:03079C001A80D2EE
:01079F002237
:0908E3000718170508160C320174
:05000300C2B5C2B622E7
:0605F10025F0FDEC3EFCCC
:0605F7008C088D09AB0722
:1005FD00E4FDD2B574017E00A805088005C333CE95
:10060D0033CED8F9FFEBF582EF558224FF92B4D2A9
:10061D00B6C2B60DBD08DDE4FD74017E00A8050867
:10062D008005C333CE33CED8F9FFE5085EFEE5096C
:10063D005F4E24FF92B4D2B6C2B60DBD08DBC2B573
:01064D00228A
:0206A700AD079D
:1006A900E4F9FB430501D2B574017E00A803088073
:1006B90005C333CE33CED8F9FFEDF582EF55822449
:1006C900FF92B4C2B6D2B60BBB08DDE4FBD2B6C208
:1006D900B630B40D7401A803088002C333D8FC42B4
:0B06E900010BBB08E8C2B5C2B4AF01B2
:0106F40022E3
:10029C00E4FDFC7F8E1205F7E51875F00A8475F005
:1002AC0010A4FFAEF0E51875F00A84EF7F8C1205F0
:1002BC00F1E51975F00A8475F010A4FFAEF0E5199C
:1002CC0075F00A847C00EF7F881205F1E51A75F051
:1002DC000A8475F010A4FFAEF0E51A75F00A847C60
:1002EC0000EF25F0FDEC3EFC7F861205F7E51B7553
:1002FC00F00A8475F010A4FFAEF0E51B75F00A84CB
:10030C007C00EF25F0FDEC3EFC7F841205F7E51C2C
:10031C0075F00A8475F010A4FFAEF0E51D75F00AB7
:10032C00847C00EF25F0FDEC3EFC7F821205F7E5A6
:10033C001D75F00A8475F010A4FFAEF0E51D75F084
:10034C000A847C00EF25F0FDEC3EFC7F801205F763
:10035C00E51E75F00A8475F010A4FFAEF0E51E756D
:10036C00F00A847C00EF25F0FDEC3EFC7F8A120540
:0A037C00F77D807C007F8E0205F7FC
:10041A007F8C1206A7EFC4540F75F00AA4FEEF549E
:10042A000F2EF5187F881206A7EFC4540F75F00A2D
:10043A00A4FEEF540F2EF5197F861206A7EFC454B7
:10044A000F75F00AA4FEEF540F2EF51A7F841206D8
:10045A00A7EFC4540F75F00AA4FEEF540F2EF51B34
:10046A007F821206A7EFC4540F75F00AA4FEEF5458
:10047A000F2EF51C7F801206A7EFC4540F75F00AE1
:10048A00A4FEEF540F2EF51D7F8A1206A7EFC4545F
:0C049A000F75F00AA4FEEF540F2EF51EA3
:0104A6002233
:10053300E4F50820B1137F14FE12088630B1FD7F65
:10054300147E0012088675080120B0147F147E0003
:1005530012088630B0FD7F147E00120886750802EB
:1005630020B2147F147E0012088630B2FD7F147E01
:100573000012088675080320B3147F147E00120846
:100583008630B3FD7F147E00120886750804AF0819
:010593002245
:100859005389F0438901C28DD28C758CFC758A1736
:07086900D2A9D2AFC2B922EF
:030000000204A750
:0C04A700787FE4F6D8FD75812F0204EE8A
:10038600BB010CE58229F582E5833AF583E022502C
:1003960006E92582F8E622BBFE06E92582F8E22276
:0D03A600E58229F582E5833AF583E4932290
:1003B300EF8DF0A4A8F0CF8CF0A428CE8DF0A42E5E
:0203C300FE2218
:1003C500BC000BBE0029EF8DF084FFADF022E4CC1C
:1003D500F875F008EF2FFFEE33FEEC33FCEE9DECE5
:1003E500984005FCEE9DFE0FD5F0E9E4CEFD22ED2B
:1003F500F8F5F0EE8420D21CFEADF075F008EF2F75
:10040500FFED33FD4007985006D5F0F222C398FD65
:050415000FD5F0EA2202
:1004B30002064EE493A3F8E493A34003F68001F20B
:1004C30008DFF48029E493A3F85407240CC8C3334A
:1004D300C4540F4420C8834004F456800146F6DF19
:1004E300E4800B01020408102040809008E3E47EBE
:1004F300019360BCA3FF543F30E509541FFEE4930E
:10050300A360010ECF54C025E060A840B8E493A3D4
:10051300FAE493A3F8E493A3C8C582C8CAC583CAFF
:10052300F0A3C8C582C8CAC583CADFE9DEE780BEB7
:0108EC00000B
:00000001FF
