:10015900E4F512F513FDFC7F0112008F1200F88FF0
:1001690015E51560F77F647E00120181E515FD7CB8
:08017900007F0112008F80E4F9
:1001BA00EF1FAC0670011E4C600A7D027CEFDCFE6C
:0401CA00DDFC80ECEC
:0101CE00220E
:1000F800E4F51420B1137F14FE1201BA30B1FD7F6C
:10010800147E001201BA75140120B0147F147E0009
:100118001201BA30B0FD7F147E001201BA751402C4
:1001280020B2147F147E001201BA30B2FD7F147E13
:10013800001201BA75140320B3147F147E00120153
:10014800BA30B3FD7F147E001201BA751404AF14DF
:010158002284
:1001A3005389F0438901C28DD28C758CFC758A17F3
:0701B300D2A9D2AFC2B922AC
:0C01CF000A083F065B4F666D7D077F6FDE
:10008F00EF14B4080050549000A475F003A4C58376
:10009F0025F0C583730200BC0200C00200C4020039
:1000AF00C80200CC0200D40200DC0200E4D2A4801B
:1000BF000ED2A48012D2A48016D2A4801AC2A4D2C7
:1000CF00A3D2A28016C2A4D2A3C2A2800EC2A4C27F
:1000DF00A3D2A28006C2A4C2A3C2A274082DF8E6BE
:0900EF00F5807F017E000201BAD8
:0501DC00007FF7DFFECB
:0101E10022FB
:04018100AD07AC0614
:10018500E4FBFAED25E0FFEC33FEC3EB9FEA9E505E
:0D0195000CB2951201DC0BBB00010A80E6E4
:0101A200223A
:03000000020003F8
:0C000300787FE4F6D8FD75811502004AF4
:10000F00020159E493A3F8E493A34003F68001F2AD
:10001F0008DFF48029E493A3F85407240CC8C333F2
:10002F00C4540F4420C8834004F456800146F6DFC1
:10003F00E4800B01020408102040809001CFE47E81
:10004F00019360BCA3FF543F30E509541FFEE493B6
:10005F00A360010ECF54C025E060A840B8E493A37D
:10006F00FAE493A3F8E493A3C8C582C8CAC583CAA8
:10007F00F0A3C8C582C8CAC583CADFE9DEE780BE60
:0101DB000023
:00000001FF
