:1003C60068656C6C6F2077616E677175616E7775A5
:0103D6000026
:1002FE00E4F5081203B27BFF7A0379C67D017F0114
:10030E001203291200038F08E50860F7FB7A0075C7
:0B031E000D027D027F0212036A80E8DE
:10039D00EF1FAC0670011E4C600A7D027CEFDCFE87
:0403AD00DDFC80EC07
:0103B1002229
:0603D700C2A58F80D2A731
:0803DD007F027EEFDEFEDFFC73
:0103E50022F5
:0A03F200C2A61203D7C2A70203DD62
:10034C00CFCDCFCECCCE1201CB7C007D0A1201CB0F
:04035C00ED2430FF5D
:0A036000D2A61203D7C2A70203DDE4
:10038700AE07BE0104ED148006BE0209ED243F440A
:0603970080FF1203F222B8
:1003B2007F381203F27F0C1203F27F061203F27FE0
:0403C200010203F23F
:0A03FC00AC03120387AF0402036094
:060329008B098A0A890B12
:10032F00120387E4FDAB09AA0AA90B8D827583001E
:0C033F0012018CFF60061203600D80E9C3
:01034B00228F
:0C02CB007F0AEA24FFFDE434FFFC7E0003
:0802D7008E0E8F0F8C108D11AB
:1002DF007F017E00E4FBEBC39511E5106480F87499
:0E02EF008098500AAC0EAD0F1201B90B80E8DA
:0102FD0022DE
:04036A008A0B8B0C63
:10036E00120387AA0DEAD39400400D1202CBAC0BF8
:08037E00AD0C12034C1A80EDD6
:010386002254
:10022000120387C3EA64809480400B7F2B12036023
:100230008A178B18800E7F2D120360C3E49BF5187C
:10024000E49AF517AA16EAD39400400D1202CBAC3B
:0902500017AD1812034C1A80EDE1
:010259002282
:04025A008A1B8B1C54
:10025E00120387AA1DEAD3940040297F101202CD03
:10026E00AC1BAD1CCFCDCFCECCCE1201CBEF540FED
:10027E00FEC3940AEE5004243080022437FF12038A
:04028E00601A80D1A1
:010292002249
:040293008A208B2111
:10029700120387AA22EAD394004028EA24FFFDE448
:1002A70034FFFC7F027E001202D7AC20AD21CFCDF8
:1002B700CFCECCCE1201CBEF54012430FF12036016
:0302C7001A80D2C8
:0102CA002211
:10000300E4F5097590FFC2932094137F14FE120345
:100013009D3094FD7F147E0012039D75090D20957C
:10002300147F147E0012039D3095FD7F147E001211
:10003300039D7509092096147F147E0012039D30D9
:1000430096FD7F147E0012039D7509052097147F8A
:10005300147E0012039D3097FD7F147E0012039DD2
:100063007509017590FFC2922094147F147E0012CB
:10007300039D3094FD7F147E0012039D75090E20AD
:1000830095147F147E0012039D3095FD7F147E002E
:1000930012039D75090A2096147F147E0012039D96
:1000A3003096FD7F147E0012039D75090620971478
:1000B3007F147E0012039D3097FD7F147E00120390
:1000C3009D7509027590FFC2912094147F147E00E0
:1000D30012039D3094FD7F147E0012039D75090F5A
:1000E3002095147F147E0012039D3095FD7F147EAE
:1000F3000012039D75090B2096147F147E001203D2
:100103009D3096FD7F147E0012039D75090720978D
:10011300147F147E0012039D3097FD7F147E00121E
:10012300039D7509037590FFC2902094147F147E7C
:100133000012039D3094FD7F147E0012039D750908
:10014300102095147F147E0012039D3095FD7F14BB
:100153007E0012039D75090C2096147F147E0012F5
:10016300039D3096FD7F147E0012039D75090820C0
:1001730097147F147E0012039D3097FD7F147E0039
:0801830012039D750904AF0988
:01018B002251
:030000000203E612
:0C03E600787FE4F6D8FD7581220202FE4B
:10018C00BB010CE58229F582E5833AF583E0225028
:10019C0006E92582F8E622BBFE06E92582F8E22272
:0D01AC00E58229F582E5833AF583E493228C
:1001B900EF8DF0A4A8F0CF8CF0A428CE8DF0A42E5A
:0201C900FE2214
:1001CB00BC000BBE0029EF8DF084FFADF022E4CC18
:1001DB00F875F008EF2FFFEE33FEEC33FCEE9DECE1
:1001EB00984005FCEE9DFE0FD5F0E9E4CEFD22ED27
:1001FB00F8F5F0EE8420D21CFEADF075F008EF2F71
:10020B00FFED33FD4007985006D5F0F222C398FD61
:05021B000FD5F0EA22FE
:00000001FF
